{
  "contractName": "IPFSStorage",
  "abi": [
    {
      "anonymous": false,
      "inputs": [
        {
          "indexed": true,
          "internalType": "address",
          "name": "uploader",
          "type": "address"
        },
        {
          "indexed": false,
          "internalType": "string",
          "name": "ipfsHash",
          "type": "string"
        }
      ],
      "name": "FileStored",
      "type": "event"
    },
    {
      "inputs": [
        {
          "internalType": "address",
          "name": "",
          "type": "address"
        }
      ],
      "name": "userFiles",
      "outputs": [
        {
          "internalType": "string",
          "name": "",
          "type": "string"
        }
      ],
      "stateMutability": "view",
      "type": "function"
    },
    {
      "inputs": [
        {
          "internalType": "string",
          "name": "_ipfsHash",
          "type": "string"
        }
      ],
      "name": "storePDFHash",
      "outputs": [],
      "stateMutability": "nonpayable",
      "type": "function"
    },
    {
      "inputs": [
        {
          "internalType": "address",
          "name": "_uploader",
          "type": "address"
        }
      ],
      "name": "getPDFHash",
      "outputs": [
        {
          "internalType": "string",
          "name": "",
          "type": "string"
        }
      ],
      "stateMutability": "view",
      "type": "function"
    },
    {
      "inputs": [
        {
          "internalType": "string",
          "name": "_pdfHash",
          "type": "string"
        }
      ],
      "name": "validatePDF",
      "outputs": [
        {
          "internalType": "bool",
          "name": "",
          "type": "bool"
        }
      ],
      "stateMutability": "view",
      "type": "function"
    }
  ],
  "bytecode": "0x608060405234801561001057600080fd5b506108ce806100206000396000f3fe608060405234801561001057600080fd5b506004361061004c5760003560e01c806385c4777e14610051578063b0b190721461006d578063c097ca3f1461009d578063c2b527b4146100cd575b600080fd5b61006b60048036038101906100669190610631565b6100fd565b005b610087600480360381019061008291906106d8565b6101a1565b604051610094919061078d565b60405180910390f35b6100b760048036038101906100b291906106d8565b610241565b6040516100c4919061078d565b60405180910390f35b6100e760048036038101906100e29190610631565b610311565b6040516100f491906107ca565b60405180910390f35b806000803373ffffffffffffffffffffffffffffffffffffffff1673ffffffffffffffffffffffffffffffffffffffff168152602001908152602001600020908051906020019061014f929190610434565b503373ffffffffffffffffffffffffffffffffffffffff167f794ce8beab181d20ff474f00e6251d0a36d0c1f89797ba1b484a0be53e0dcbf182604051610196919061078d565b60405180910390a250565b600060205280600052604060002060009150905080546101c090610814565b80601f01602080910402602001604051908101604052809291908181526020018280546101ec90610814565b80156102395780601f1061020e57610100808354040283529160200191610239565b820191906000526020600020905b81548152906001019060200180831161021c57829003601f168201915b505050505081565b60606000808373ffffffffffffffffffffffffffffffffffffffff1673ffffffffffffffffffffffffffffffffffffffff168152602001908152602001600020805461028c90610814565b80601f01602080910402602001604051908101604052809291908181526020018280546102b890610814565b80156103055780601f106102da57610100808354040283529160200191610305565b820191906000526020600020905b8154815290600101906020018083116102e857829003601f168201915b50505050509050919050565b6000806000803373ffffffffffffffffffffffffffffffffffffffff1673ffffffffffffffffffffffffffffffffffffffff168152602001908152602001600020805461035d90610814565b80601f016020809104026020016040519081016040528092919081815260200182805461038990610814565b80156103d65780601f106103ab576101008083540402835291602001916103d6565b820191906000526020600020905b8154815290600101906020018083116103b957829003601f168201915b50505050509050826040516020016103ee9190610881565b60405160208183030381529060405280519060200120816040516020016104159190610881565b6040516020818303038152906040528051906020012014915050919050565b82805461044090610814565b90600052602060002090601f01602090048101928261046257600085556104a9565b82601f1061047b57805160ff19168380011785556104a9565b828001600101855582156104a9579182015b828111156104a857825182559160200191906001019061048d565b5b5090506104b691906104ba565b5090565b5b808211156104d35760008160009055506001016104bb565b5090565b6000604051905090565b600080fd5b600080fd5b600080fd5b600080fd5b6000601f19601f8301169050919050565b7f4e487b7100000000000000000000000000000000000000000000000000000000600052604160045260246000fd5b61053e826104f5565b810181811067ffffffffffffffff8211171561055d5761055c610506565b5b80604052505050565b60006105706104d7565b905061057c8282610535565b919050565b600067ffffffffffffffff82111561059c5761059b610506565b5b6105a5826104f5565b9050602081019050919050565b82818337600083830152505050565b60006105d46105cf84610581565b610566565b9050828152602081018484840111156105f0576105ef6104f0565b5b6105fb8482856105b2565b509392505050565b600082601f830112610618576106176104eb565b5b81356106288482602086016105c1565b91505092915050565b600060208284031215610647576106466104e1565b5b600082013567ffffffffffffffff811115610665576106646104e6565b5b61067184828501610603565b91505092915050565b600073ffffffffffffffffffffffffffffffffffffffff82169050919050565b60006106a58261067a565b9050919050565b6106b58161069a565b81146106c057600080fd5b50565b6000813590506106d2816106ac565b92915050565b6000602082840312156106ee576106ed6104e1565b5b60006106fc848285016106c3565b91505092915050565b600081519050919050565b600082825260208201905092915050565b60005b8381101561073f578082015181840152602081019050610724565b8381111561074e576000848401525b50505050565b600061075f82610705565b6107698185610710565b9350610779818560208601610721565b610782816104f5565b840191505092915050565b600060208201905081810360008301526107a78184610754565b905092915050565b60008115159050919050565b6107c4816107af565b82525050565b60006020820190506107df60008301846107bb565b92915050565b7f4e487b7100000000000000000000000000000000000000000000000000000000600052602260045260246000fd5b6000600282049050600182168061082c57607f821691505b60208210810361083f5761083e6107e5565b5b50919050565b600081905092915050565b600061085b82610705565b6108658185610845565b9350610875818560208601610721565b80840191505092915050565b600061088d8284610850565b91508190509291505056fea2646970667358221220ff51bcbfdf3c4ea7aeed7fe47acdaf1378301a9de37364c4bd9678d6e0e5573b64736f6c634300080d0033",
  "immutableReferences": {},
  "source": "// SPDX-License-Identifier: MIT\r\npragma solidity ^0.8.0;\r\n\r\ncontract IPFSStorage {\r\n    // Mapping to store IPFS hash of PDF files uploaded by each user\r\n    mapping(address => string) public userFiles;\r\n\r\n    // Event emitted when a PDF file is stored\r\n    event FileStored(address indexed uploader, string ipfsHash);\r\n\r\n    // Function to store PDF file hash\r\n    function storePDFHash(string memory _ipfsHash) public {\r\n        userFiles[msg.sender] = _ipfsHash;\r\n        emit FileStored(msg.sender, _ipfsHash);\r\n    }\r\n\r\n    // Function to retrieve IPFS hash of PDF file uploaded by a specific user\r\n    function getPDFHash(address _uploader) public view returns (string memory) {\r\n        return userFiles[_uploader];\r\n    }\r\n\r\n    // Function to validate PDF file against its IPFS hash\r\n    function validatePDF(string memory _pdfHash) public view returns (bool) {\r\n        // Get the IPFS hash of the PDF file uploaded by the caller\r\n        string memory uploadedHash = userFiles[msg.sender];\r\n        // Compare the uploaded hash with the provided hash\r\n        return keccak256(abi.encodePacked(uploadedHash)) == keccak256(abi.encodePacked(_pdfHash));\r\n    }\r\n}",
  "sourcePath": "E:\\defi-staking-app-starter-main\\defi-staking-app-starter\\src\\contracts\\IPFSStorage.sol",
  "compiler": {
    "name": "solc",
    "version": "0.8.13+commit.abaa5c0e.Emscripten.clang"
  },
  "schemaVersion": "3.4.16",
  "updatedAt": "2024-03-13T05:27:54.003Z",
  "devdoc": {
    "kind": "dev",
    "methods": {},
    "version": 1
  },
  "userdoc": {
    "kind": "user",
    "methods": {},
    "version": 1
  }
}