{
  "contractName": "OCertificate",
  "abi": [
    {
      "anonymous": false,
      "inputs": [
        {
          "indexed": true,
          "internalType": "uint256",
          "name": "uid",
          "type": "uint256"
        },
        {
          "indexed": true,
          "internalType": "address",
          "name": "issuer",
          "type": "address"
        }
      ],
      "name": "CertificateGenerated",
      "type": "event"
    },
    {
      "anonymous": false,
      "inputs": [
        {
          "indexed": true,
          "internalType": "uint256",
          "name": "uid",
          "type": "uint256"
        },
        {
          "indexed": false,
          "internalType": "bool",
          "name": "isValid",
          "type": "bool"
        }
      ],
      "name": "CertificateValidated",
      "type": "event"
    },
    {
      "inputs": [],
      "name": "certificateCount",
      "outputs": [
        {
          "internalType": "uint256",
          "name": "",
          "type": "uint256"
        }
      ],
      "stateMutability": "view",
      "type": "function"
    },
    {
      "inputs": [
        {
          "internalType": "uint256",
          "name": "",
          "type": "uint256"
        }
      ],
      "name": "certificates",
      "outputs": [
        {
          "internalType": "string",
          "name": "name",
          "type": "string"
        },
        {
          "internalType": "uint256",
          "name": "uid",
          "type": "uint256"
        },
        {
          "internalType": "string",
          "name": "courseName",
          "type": "string"
        },
        {
          "internalType": "string",
          "name": "remark",
          "type": "string"
        },
        {
          "internalType": "uint256",
          "name": "dateOfIssue",
          "type": "uint256"
        },
        {
          "internalType": "address",
          "name": "issuer",
          "type": "address"
        }
      ],
      "stateMutability": "view",
      "type": "function"
    },
    {
      "inputs": [
        {
          "internalType": "string",
          "name": "_name",
          "type": "string"
        },
        {
          "internalType": "uint256",
          "name": "_uid",
          "type": "uint256"
        },
        {
          "internalType": "string",
          "name": "_courseName",
          "type": "string"
        },
        {
          "internalType": "string",
          "name": "_remark",
          "type": "string"
        },
        {
          "internalType": "uint256",
          "name": "_dateOfIssue",
          "type": "uint256"
        }
      ],
      "name": "generateCertificate",
      "outputs": [],
      "stateMutability": "nonpayable",
      "type": "function"
    },
    {
      "inputs": [
        {
          "internalType": "uint256",
          "name": "_uid",
          "type": "uint256"
        },
        {
          "internalType": "string",
          "name": "_name",
          "type": "string"
        },
        {
          "internalType": "string",
          "name": "_courseName",
          "type": "string"
        },
        {
          "internalType": "uint256",
          "name": "_dateOfIssue",
          "type": "uint256"
        }
      ],
      "name": "validateCertificate",
      "outputs": [],
      "stateMutability": "nonpayable",
      "type": "function"
    }
  ],
  "bytecode": "0x608060405234801561001057600080fd5b50610e52806100206000396000f3fe608060405234801561001057600080fd5b506004361061004c5760003560e01c806316e22b721461005157806352d7b89c1461006d578063663b3e221461008b5780638c872ab4146100c0575b600080fd5b61006b600480360381019061006691906109b8565b6100dc565b005b61007561041e565b6040516100829190610a66565b60405180910390f35b6100a560048036038101906100a09190610a81565b610424565b6040516100b796959493929190610b77565b60405180910390f35b6100da60048036038101906100d59190610bed565b610618565b005b60008060008681526020019081526020016000206040518060c001604052908160008201805461010b90610ceb565b80601f016020809104026020016040519081016040528092919081815260200182805461013790610ceb565b80156101845780601f1061015957610100808354040283529160200191610184565b820191906000526020600020905b81548152906001019060200180831161016757829003601f168201915b50505050508152602001600182015481526020016002820180546101a790610ceb565b80601f01602080910402602001604051908101604052809291908181526020018280546101d390610ceb565b80156102205780601f106101f557610100808354040283529160200191610220565b820191906000526020600020905b81548152906001019060200180831161020357829003601f168201915b5050505050815260200160038201805461023990610ceb565b80601f016020809104026020016040519081016040528092919081815260200182805461026590610ceb565b80156102b25780601f10610287576101008083540402835291602001916102b2565b820191906000526020600020905b81548152906001019060200180831161029557829003601f168201915b50505050508152602001600482015481526020016005820160009054906101000a900473ffffffffffffffffffffffffffffffffffffffff1673ffffffffffffffffffffffffffffffffffffffff1673ffffffffffffffffffffffffffffffffffffffff168152505090506000846040516020016103309190610d58565b60405160208183030381529060405280519060200120826000015160405160200161035b9190610d58565b604051602081830303815290604052805190602001201480156103815750828260800151145b80156103dc5750836040516020016103999190610d58565b6040516020818303038152906040528051906020012082604001516040516020016103c49190610d58565b60405160208183030381529060405280519060200120145b9050857f6f264ada930d78fad09fda6cd364a42818013b7ff3c555b3acb307845b1c83488260405161040e9190610d8a565b60405180910390a2505050505050565b60015481565b600060205280600052604060002060009150905080600001805461044790610ceb565b80601f016020809104026020016040519081016040528092919081815260200182805461047390610ceb565b80156104c05780601f10610495576101008083540402835291602001916104c0565b820191906000526020600020905b8154815290600101906020018083116104a357829003601f168201915b5050505050908060010154908060020180546104db90610ceb565b80601f016020809104026020016040519081016040528092919081815260200182805461050790610ceb565b80156105545780601f1061052957610100808354040283529160200191610554565b820191906000526020600020905b81548152906001019060200180831161053757829003601f168201915b50505050509080600301805461056990610ceb565b80601f016020809104026020016040519081016040528092919081815260200182805461059590610ceb565b80156105e25780601f106105b7576101008083540402835291602001916105e2565b820191906000526020600020905b8154815290600101906020018083116105c557829003601f168201915b5050505050908060040154908060050160009054906101000a900473ffffffffffffffffffffffffffffffffffffffff16905086565b6040518060c001604052808681526020018581526020018481526020018381526020018281526020013373ffffffffffffffffffffffffffffffffffffffff168152506000808681526020019081526020016000206000820151816000019080519060200190610689929190610785565b506020820151816001015560408201518160020190805190602001906106b0929190610785565b5060608201518160030190805190602001906106cd929190610785565b506080820151816004015560a08201518160050160006101000a81548173ffffffffffffffffffffffffffffffffffffffff021916908373ffffffffffffffffffffffffffffffffffffffff1602179055509050506001600081548092919061073590610dd4565b91905055503373ffffffffffffffffffffffffffffffffffffffff16847fb6a8ff1a9f7c6391e81bd7be3aa423bbc4737c335f8f14e9637c2ab2202904a560405160405180910390a35050505050565b82805461079190610ceb565b90600052602060002090601f0160209004810192826107b357600085556107fa565b82601f106107cc57805160ff19168380011785556107fa565b828001600101855582156107fa579182015b828111156107f95782518255916020019190600101906107de565b5b509050610807919061080b565b5090565b5b8082111561082457600081600090555060010161080c565b5090565b6000604051905090565b600080fd5b600080fd5b6000819050919050565b61084f8161083c565b811461085a57600080fd5b50565b60008135905061086c81610846565b92915050565b600080fd5b600080fd5b6000601f19601f8301169050919050565b7f4e487b7100000000000000000000000000000000000000000000000000000000600052604160045260246000fd5b6108c58261087c565b810181811067ffffffffffffffff821117156108e4576108e361088d565b5b80604052505050565b60006108f7610828565b905061090382826108bc565b919050565b600067ffffffffffffffff8211156109235761092261088d565b5b61092c8261087c565b9050602081019050919050565b82818337600083830152505050565b600061095b61095684610908565b6108ed565b90508281526020810184848401111561097757610976610877565b5b610982848285610939565b509392505050565b600082601f83011261099f5761099e610872565b5b81356109af848260208601610948565b91505092915050565b600080600080608085870312156109d2576109d1610832565b5b60006109e08782880161085d565b945050602085013567ffffffffffffffff811115610a0157610a00610837565b5b610a0d8782880161098a565b935050604085013567ffffffffffffffff811115610a2e57610a2d610837565b5b610a3a8782880161098a565b9250506060610a4b8782880161085d565b91505092959194509250565b610a608161083c565b82525050565b6000602082019050610a7b6000830184610a57565b92915050565b600060208284031215610a9757610a96610832565b5b6000610aa58482850161085d565b91505092915050565b600081519050919050565b600082825260208201905092915050565b60005b83811015610ae8578082015181840152602081019050610acd565b83811115610af7576000848401525b50505050565b6000610b0882610aae565b610b128185610ab9565b9350610b22818560208601610aca565b610b2b8161087c565b840191505092915050565b600073ffffffffffffffffffffffffffffffffffffffff82169050919050565b6000610b6182610b36565b9050919050565b610b7181610b56565b82525050565b600060c0820190508181036000830152610b918189610afd565b9050610ba06020830188610a57565b8181036040830152610bb28187610afd565b90508181036060830152610bc68186610afd565b9050610bd56080830185610a57565b610be260a0830184610b68565b979650505050505050565b600080600080600060a08688031215610c0957610c08610832565b5b600086013567ffffffffffffffff811115610c2757610c26610837565b5b610c338882890161098a565b9550506020610c448882890161085d565b945050604086013567ffffffffffffffff811115610c6557610c64610837565b5b610c718882890161098a565b935050606086013567ffffffffffffffff811115610c9257610c91610837565b5b610c9e8882890161098a565b9250506080610caf8882890161085d565b9150509295509295909350565b7f4e487b7100000000000000000000000000000000000000000000000000000000600052602260045260246000fd5b60006002820490506001821680610d0357607f821691505b602082108103610d1657610d15610cbc565b5b50919050565b600081905092915050565b6000610d3282610aae565b610d3c8185610d1c565b9350610d4c818560208601610aca565b80840191505092915050565b6000610d648284610d27565b915081905092915050565b60008115159050919050565b610d8481610d6f565b82525050565b6000602082019050610d9f6000830184610d7b565b92915050565b7f4e487b7100000000000000000000000000000000000000000000000000000000600052601160045260246000fd5b6000610ddf8261083c565b91507fffffffffffffffffffffffffffffffffffffffffffffffffffffffffffffffff8203610e1157610e10610da5565b5b60018201905091905056fea26469706673582212204ca90856d55ce2b92a71d9d997ef66cb028a2255792892acec2382a4bedcf52164736f6c634300080d0033",
  "immutableReferences": {},
  "source": "// SPDX-License-Identifier: MIT\r\npragma solidity >=0.4.22 <0.9.0;\r\n\r\ncontract OCertificate {\r\n    struct CertificateData {\r\n        string name;\r\n        uint256 uid;\r\n        string courseName;\r\n        string remark;\r\n        uint256 dateOfIssue;\r\n        address issuer;\r\n    }\r\n\r\n    mapping(uint256 => CertificateData) public certificates;\r\n    uint256 public certificateCount;\r\n\r\n    // Event to emit when a new certificate is generated\r\n    event CertificateGenerated(uint256 indexed uid, address indexed issuer);\r\n\r\n    // Event to emit when a certificate is validated\r\n    event CertificateValidated(uint256 indexed uid, bool isValid);\r\n\r\n    // Function to generate a new certificate\r\n    function generateCertificate(\r\n        string memory _name,\r\n        uint256 _uid,\r\n        string memory _courseName,\r\n        string memory _remark,\r\n        uint256 _dateOfIssue\r\n    ) public {\r\n        certificates[_uid] = CertificateData({\r\n            name: _name,\r\n            uid: _uid,\r\n            courseName: _courseName,\r\n            remark: _remark,\r\n            dateOfIssue: _dateOfIssue,\r\n            issuer: msg.sender\r\n        });\r\n\r\n        certificateCount++;\r\n\r\n        // Emit event\r\n        emit CertificateGenerated(_uid, msg.sender);\r\n    }\r\n\r\n    // Function to validate a certificate\r\n    function validateCertificate(uint256 _uid, string memory _name, string memory _courseName, uint256 _dateOfIssue) public {\r\n        CertificateData memory certificate = certificates[_uid];\r\n        bool isValid = (keccak256(abi.encodePacked(certificate.name)) == keccak256(abi.encodePacked(_name))) &&\r\n                       (certificate.dateOfIssue == _dateOfIssue) &&\r\n                       (keccak256(abi.encodePacked(certificate.courseName)) == keccak256(abi.encodePacked(_courseName)));\r\n        emit CertificateValidated(_uid, isValid);\r\n    }\r\n}\r\n",
  "sourcePath": "E:\\defi-staking-app-starter-main\\defi-staking-app-starter\\src\\contracts\\OCertificate.sol",
  "compiler": {
    "name": "solc",
    "version": "0.8.13+commit.abaa5c0e.Emscripten.clang"
  },
  "schemaVersion": "3.4.16",
  "updatedAt": "2024-03-13T05:27:54.011Z",
  "devdoc": {
    "kind": "dev",
    "methods": {},
    "version": 1
  },
  "userdoc": {
    "kind": "user",
    "methods": {},
    "version": 1
  }
}